{
  "contractName": "HealthDRS",
  "abi": [
    {
      "constant": false,
      "inputs": [
        {
          "name": "_token",
          "type": "address"
        },
        {
          "name": "amount",
          "type": "uint256"
        }
      ],
      "name": "recoverTokens",
      "outputs": [],
      "payable": false,
      "type": "function",
      "stateMutability": "nonpayable"
    },
    {
      "constant": true,
      "inputs": [
        {
          "name": "",
          "type": "bytes32"
        }
      ],
      "name": "services",
      "outputs": [
        {
          "name": "url",
          "type": "string"
        },
        {
          "name": "owner",
          "type": "address"
        }
      ],
      "payable": false,
      "type": "function",
      "stateMutability": "view"
    },
    {
      "constant": false,
      "inputs": [
        {
          "name": "from",
          "type": "bytes32"
        },
        {
          "name": "data",
          "type": "string"
        }
      ],
      "name": "log",
      "outputs": [],
      "payable": false,
      "type": "function",
      "stateMutability": "nonpayable"
    },
    {
      "constant": true,
      "inputs": [
        {
          "name": "key",
          "type": "bytes32"
        },
        {
          "name": "dataKey",
          "type": "bytes32"
        }
      ],
      "name": "getKeyData",
      "outputs": [
        {
          "name": "",
          "type": "bytes32"
        }
      ],
      "payable": false,
      "type": "function",
      "stateMutability": "view"
    },
    {
      "constant": true,
      "inputs": [
        {
          "name": "key",
          "type": "bytes32"
        }
      ],
      "name": "getKey",
      "outputs": [
        {
          "name": "",
          "type": "address"
        },
        {
          "name": "",
          "type": "bool"
        },
        {
          "name": "",
          "type": "bool"
        },
        {
          "name": "",
          "type": "bool"
        },
        {
          "name": "",
          "type": "bytes32"
        }
      ],
      "payable": false,
      "type": "function",
      "stateMutability": "view"
    },
    {
      "constant": false,
      "inputs": [
        {
          "name": "have",
          "type": "bytes32"
        },
        {
          "name": "want",
          "type": "bytes32"
        }
      ],
      "name": "createTradeOffer",
      "outputs": [],
      "payable": false,
      "type": "function",
      "stateMutability": "nonpayable"
    },
    {
      "constant": false,
      "inputs": [
        {
          "name": "_token",
          "type": "address"
        }
      ],
      "name": "setHealthCashToken",
      "outputs": [],
      "payable": false,
      "type": "function",
      "stateMutability": "nonpayable"
    },
    {
      "constant": true,
      "inputs": [
        {
          "name": "",
          "type": "uint256"
        }
      ],
      "name": "keyList",
      "outputs": [
        {
          "name": "",
          "type": "bytes32"
        }
      ],
      "payable": false,
      "type": "function",
      "stateMutability": "view"
    },
    {
      "constant": true,
      "inputs": [
        {
          "name": "key",
          "type": "bytes32"
        }
      ],
      "name": "getUrlFromKey",
      "outputs": [
        {
          "name": "",
          "type": "string"
        }
      ],
      "payable": false,
      "type": "function",
      "stateMutability": "view"
    },
    {
      "constant": false,
      "inputs": [
        {
          "name": "service",
          "type": "bytes32"
        },
        {
          "name": "url",
          "type": "string"
        }
      ],
      "name": "updateUrl",
      "outputs": [],
      "payable": false,
      "type": "function",
      "stateMutability": "nonpayable"
    },
    {
      "constant": false,
      "inputs": [
        {
          "name": "key",
          "type": "bytes32"
        }
      ],
      "name": "cancelTradeOffer",
      "outputs": [],
      "payable": false,
      "type": "function",
      "stateMutability": "nonpayable"
    },
    {
      "constant": true,
      "inputs": [
        {
          "name": "service",
          "type": "bytes32"
        }
      ],
      "name": "getUrl",
      "outputs": [
        {
          "name": "",
          "type": "string"
        }
      ],
      "payable": false,
      "type": "function",
      "stateMutability": "view"
    },
    {
      "constant": true,
      "inputs": [
        {
          "name": "key",
          "type": "bytes32"
        },
        {
          "name": "account",
          "type": "address"
        }
      ],
      "name": "isKeyOwner",
      "outputs": [
        {
          "name": "",
          "type": "bool"
        }
      ],
      "payable": false,
      "type": "function",
      "stateMutability": "view"
    },
    {
      "constant": true,
      "inputs": [],
      "name": "getServiceCount",
      "outputs": [
        {
          "name": "",
          "type": "uint256"
        }
      ],
      "payable": false,
      "type": "function",
      "stateMutability": "view"
    },
    {
      "constant": false,
      "inputs": [
        {
          "name": "url",
          "type": "string"
        }
      ],
      "name": "createService",
      "outputs": [],
      "payable": false,
      "type": "function",
      "stateMutability": "nonpayable"
    },
    {
      "constant": true,
      "inputs": [
        {
          "name": "service",
          "type": "bytes32"
        },
        {
          "name": "account",
          "type": "address"
        }
      ],
      "name": "isServiceOwner",
      "outputs": [
        {
          "name": "",
          "type": "bool"
        }
      ],
      "payable": false,
      "type": "function",
      "stateMutability": "view"
    },
    {
      "constant": true,
      "inputs": [
        {
          "name": "",
          "type": "bytes32"
        }
      ],
      "name": "tradeOffers",
      "outputs": [
        {
          "name": "",
          "type": "bytes32"
        }
      ],
      "payable": false,
      "type": "function",
      "stateMutability": "view"
    },
    {
      "constant": true,
      "inputs": [],
      "name": "version",
      "outputs": [
        {
          "name": "",
          "type": "uint8"
        }
      ],
      "payable": false,
      "type": "function",
      "stateMutability": "view"
    },
    {
      "constant": false,
      "inputs": [
        {
          "name": "key",
          "type": "bytes32"
        },
        {
          "name": "canShare_",
          "type": "bool"
        },
        {
          "name": "canTrade_",
          "type": "bool"
        },
        {
          "name": "canSell_",
          "type": "bool"
        }
      ],
      "name": "setKeyPermissions",
      "outputs": [],
      "payable": false,
      "type": "function",
      "stateMutability": "nonpayable"
    },
    {
      "constant": false,
      "inputs": [
        {
          "name": "service",
          "type": "bytes32"
        },
        {
          "name": "account",
          "type": "address"
        }
      ],
      "name": "shareService",
      "outputs": [],
      "payable": false,
      "type": "function",
      "stateMutability": "nonpayable"
    },
    {
      "constant": true,
      "inputs": [
        {
          "name": "msgHash",
          "type": "bytes32"
        },
        {
          "name": "v",
          "type": "uint8"
        },
        {
          "name": "r",
          "type": "bytes32"
        },
        {
          "name": "s",
          "type": "bytes32"
        }
      ],
      "name": "recoverAddress",
      "outputs": [
        {
          "name": "",
          "type": "address"
        }
      ],
      "payable": false,
      "type": "function",
      "stateMutability": "view"
    },
    {
      "constant": false,
      "inputs": [
        {
          "name": "have",
          "type": "bytes32"
        },
        {
          "name": "want",
          "type": "bytes32"
        }
      ],
      "name": "tradeKey",
      "outputs": [],
      "payable": false,
      "type": "function",
      "stateMutability": "nonpayable"
    },
    {
      "constant": false,
      "inputs": [
        {
          "name": "service",
          "type": "bytes32"
        },
        {
          "name": "issueTo",
          "type": "address"
        }
      ],
      "name": "issueKey",
      "outputs": [],
      "payable": false,
      "type": "function",
      "stateMutability": "nonpayable"
    },
    {
      "constant": false,
      "inputs": [
        {
          "name": "key",
          "type": "bytes32"
        },
        {
          "name": "buyer",
          "type": "address"
        },
        {
          "name": "price",
          "type": "uint256"
        },
        {
          "name": "_canSell",
          "type": "bool"
        }
      ],
      "name": "createSalesOffer",
      "outputs": [],
      "payable": false,
      "type": "function",
      "stateMutability": "nonpayable"
    },
    {
      "constant": true,
      "inputs": [
        {
          "name": "",
          "type": "bytes32"
        },
        {
          "name": "",
          "type": "uint256"
        }
      ],
      "name": "owners",
      "outputs": [
        {
          "name": "",
          "type": "address"
        }
      ],
      "payable": false,
      "type": "function",
      "stateMutability": "view"
    },
    {
      "constant": true,
      "inputs": [],
      "name": "owner",
      "outputs": [
        {
          "name": "",
          "type": "address"
        }
      ],
      "payable": false,
      "type": "function",
      "stateMutability": "view"
    },
    {
      "constant": false,
      "inputs": [
        {
          "name": "service",
          "type": "bytes32"
        }
      ],
      "name": "createKey",
      "outputs": [],
      "payable": false,
      "type": "function",
      "stateMutability": "nonpayable"
    },
    {
      "constant": false,
      "inputs": [
        {
          "name": "from",
          "type": "bytes32"
        },
        {
          "name": "to",
          "type": "bytes32"
        },
        {
          "name": "category",
          "type": "string"
        },
        {
          "name": "data",
          "type": "string"
        }
      ],
      "name": "message",
      "outputs": [],
      "payable": false,
      "type": "function",
      "stateMutability": "nonpayable"
    },
    {
      "constant": true,
      "inputs": [
        {
          "name": "",
          "type": "bytes32"
        }
      ],
      "name": "salesOffers",
      "outputs": [
        {
          "name": "buyer",
          "type": "address"
        },
        {
          "name": "price",
          "type": "uint256"
        },
        {
          "name": "canSell",
          "type": "bool"
        }
      ],
      "payable": false,
      "type": "function",
      "stateMutability": "view"
    },
    {
      "constant": false,
      "inputs": [
        {
          "name": "key",
          "type": "bytes32"
        }
      ],
      "name": "cancelSalesOffer",
      "outputs": [],
      "payable": false,
      "type": "function",
      "stateMutability": "nonpayable"
    },
    {
      "constant": true,
      "inputs": [],
      "name": "latestContract",
      "outputs": [
        {
          "name": "",
          "type": "address"
        }
      ],
      "payable": false,
      "type": "function",
      "stateMutability": "view"
    },
    {
      "constant": true,
      "inputs": [
        {
          "name": "",
          "type": "bytes32"
        }
      ],
      "name": "keyData",
      "outputs": [
        {
          "name": "",
          "type": "bytes32"
        }
      ],
      "payable": false,
      "type": "function",
      "stateMutability": "view"
    },
    {
      "constant": false,
      "inputs": [
        {
          "name": "key",
          "type": "bytes32"
        }
      ],
      "name": "purchaseKey",
      "outputs": [],
      "payable": false,
      "type": "function",
      "stateMutability": "nonpayable"
    },
    {
      "constant": true,
      "inputs": [
        {
          "name": "",
          "type": "uint256"
        }
      ],
      "name": "serviceList",
      "outputs": [
        {
          "name": "",
          "type": "bytes32"
        }
      ],
      "payable": false,
      "type": "function",
      "stateMutability": "view"
    },
    {
      "constant": true,
      "inputs": [],
      "name": "authorizedToSpend",
      "outputs": [
        {
          "name": "",
          "type": "uint256"
        }
      ],
      "payable": false,
      "type": "function",
      "stateMutability": "view"
    },
    {
      "constant": false,
      "inputs": [
        {
          "name": "service",
          "type": "bytes32"
        },
        {
          "name": "account",
          "type": "address"
        }
      ],
      "name": "unshareService",
      "outputs": [],
      "payable": false,
      "type": "function",
      "stateMutability": "nonpayable"
    },
    {
      "constant": false,
      "inputs": [
        {
          "name": "key",
          "type": "bytes32"
        },
        {
          "name": "account",
          "type": "address"
        }
      ],
      "name": "unshareKey",
      "outputs": [],
      "payable": false,
      "type": "function",
      "stateMutability": "nonpayable"
    },
    {
      "constant": true,
      "inputs": [
        {
          "name": "service",
          "type": "bytes32"
        }
      ],
      "name": "getService",
      "outputs": [
        {
          "name": "",
          "type": "string"
        },
        {
          "name": "",
          "type": "address"
        }
      ],
      "payable": false,
      "type": "function",
      "stateMutability": "view"
    },
    {
      "constant": true,
      "inputs": [],
      "name": "getKeyCount",
      "outputs": [
        {
          "name": "",
          "type": "uint256"
        }
      ],
      "payable": false,
      "type": "function",
      "stateMutability": "view"
    },
    {
      "constant": false,
      "inputs": [
        {
          "name": "key",
          "type": "bytes32"
        },
        {
          "name": "account",
          "type": "address"
        }
      ],
      "name": "shareKey",
      "outputs": [],
      "payable": false,
      "type": "function",
      "stateMutability": "nonpayable"
    },
    {
      "constant": false,
      "inputs": [
        {
          "name": "newOwner",
          "type": "address"
        }
      ],
      "name": "transferOwnership",
      "outputs": [],
      "payable": false,
      "type": "function",
      "stateMutability": "nonpayable"
    },
    {
      "constant": false,
      "inputs": [
        {
          "name": "key",
          "type": "bytes32"
        },
        {
          "name": "dataKey",
          "type": "bytes32"
        },
        {
          "name": "dataValue",
          "type": "bytes32"
        }
      ],
      "name": "setKeyData",
      "outputs": [],
      "payable": false,
      "type": "function",
      "stateMutability": "nonpayable"
    },
    {
      "constant": false,
      "inputs": [
        {
          "name": "_contract",
          "type": "address"
        }
      ],
      "name": "setLatestContract",
      "outputs": [],
      "payable": false,
      "type": "function",
      "stateMutability": "nonpayable"
    },
    {
      "constant": true,
      "inputs": [],
      "name": "token",
      "outputs": [
        {
          "name": "",
          "type": "address"
        }
      ],
      "payable": false,
      "type": "function",
      "stateMutability": "view"
    },
    {
      "constant": false,
      "inputs": [
        {
          "name": "key",
          "type": "bytes32"
        },
        {
          "name": "data",
          "type": "string"
        }
      ],
      "name": "logAccess",
      "outputs": [],
      "payable": false,
      "type": "function",
      "stateMutability": "nonpayable"
    },
    {
      "inputs": [
        {
          "name": "_token",
          "type": "address"
        }
      ],
      "payable": false,
      "type": "constructor",
      "stateMutability": "nonpayable"
    },
    {
      "payable": false,
      "type": "fallback",
      "stateMutability": "nonpayable"
    },
    {
      "anonymous": false,
      "inputs": [
        {
          "indexed": true,
          "name": "_owner",
          "type": "address"
        },
        {
          "indexed": true,
          "name": "_service",
          "type": "bytes32"
        }
      ],
      "name": "ServiceCreated",
      "type": "event"
    },
    {
      "anonymous": false,
      "inputs": [
        {
          "indexed": true,
          "name": "_owner",
          "type": "address"
        },
        {
          "indexed": true,
          "name": "_key",
          "type": "bytes32"
        }
      ],
      "name": "KeyCreated",
      "type": "event"
    },
    {
      "anonymous": false,
      "inputs": [
        {
          "indexed": false,
          "name": "_key",
          "type": "bytes32"
        },
        {
          "indexed": true,
          "name": "_seller",
          "type": "address"
        },
        {
          "indexed": true,
          "name": "_buyer",
          "type": "address"
        },
        {
          "indexed": false,
          "name": "_price",
          "type": "uint256"
        }
      ],
      "name": "KeySold",
      "type": "event"
    },
    {
      "anonymous": false,
      "inputs": [
        {
          "indexed": true,
          "name": "_key1",
          "type": "bytes32"
        },
        {
          "indexed": true,
          "name": "_key2",
          "type": "bytes32"
        }
      ],
      "name": "KeysTraded",
      "type": "event"
    },
    {
      "anonymous": false,
      "inputs": [
        {
          "indexed": true,
          "name": "_owner",
          "type": "address"
        },
        {
          "indexed": true,
          "name": "_from",
          "type": "bytes32"
        },
        {
          "indexed": true,
          "name": "_to",
          "type": "bytes32"
        },
        {
          "indexed": false,
          "name": "_time",
          "type": "uint256"
        },
        {
          "indexed": false,
          "name": "_data",
          "type": "string"
        }
      ],
      "name": "Access",
      "type": "event"
    },
    {
      "anonymous": false,
      "inputs": [
        {
          "indexed": true,
          "name": "_owner",
          "type": "address"
        },
        {
          "indexed": true,
          "name": "_from",
          "type": "bytes32"
        },
        {
          "indexed": true,
          "name": "_to",
          "type": "bytes32"
        },
        {
          "indexed": false,
          "name": "_time",
          "type": "uint256"
        },
        {
          "indexed": false,
          "name": "_category",
          "type": "string"
        },
        {
          "indexed": false,
          "name": "_data",
          "type": "string"
        }
      ],
      "name": "Message",
      "type": "event"
    },
    {
      "anonymous": false,
      "inputs": [
        {
          "indexed": true,
          "name": "_owner",
          "type": "address"
        },
        {
          "indexed": true,
          "name": "_from",
          "type": "bytes32"
        },
        {
          "indexed": false,
          "name": "_time",
          "type": "uint256"
        },
        {
          "indexed": false,
          "name": "_data",
          "type": "string"
        }
      ],
      "name": "Log",
      "type": "event"
    }
  ],
  "bytecode": "0x606060405230600260006101000a81548173ffffffffffffffffffffffffffffffffffffffff021916908373ffffffffffffffffffffffffffffffffffffffff1602179055506001600260146101000a81548160ff021916908360ff160217905550341561006c57600080fd5b60405160208061441983398101604052808051906020019091905050336000806101000a81548173ffffffffffffffffffffffffffffffffffffffff021916908373ffffffffffffffffffffffffffffffffffffffff16021790555080600160006101000a81548173ffffffffffffffffffffffffffffffffffffffff021916908373ffffffffffffffffffffffffffffffffffffffff16021790555050614300806101196000396000f300606060405260043610610225576000357c0100000000000000000000000000000000000000000000000000000000900463ffffffff168063069c9fae146102355780630a790eb7146102775780630be0f6771461036757806310a101df146103d157806312aaac70146104215780631822b886146104b85780631a55c779146104ec5780631ce05c45146105255780632239e688146105645780632d599750146106045780632df6e80a1461066e578063334f22c71461069557806333c9ccf5146107355780633672404e1461079357806352578012146107bc578063536d888b1461081957806353ff7b1d1461087757806354fd4d50146108ba5780635d8d2904146108e957806381f59f51146109315780638428cf831461097757806385550c6b14610a0457806385cc9a2b14610a38578063893cebb314610a7e5780638a7aefbd14610ad85780638da5cb5b14610b485780639cd1907414610b9d5780639dc1d96114610bc4578063a0a172d314610c7e578063a2ee400014610cf7578063a6a54f0c14610d1e578063a9711ee314610d73578063b795dffe14610db6578063bd293dca14610ddd578063c395546c14610e1c578063c53df93714610e45578063c74ca04914610e8b578063da47d85614610ed1578063ee1ce84114610fa4578063ee29ce1514610fcd578063f2fde38b14611013578063f6efcb7a1461104c578063f9a8f7971461108d578063fc0c546a146110c6578063fd810eb31461111b575b341561023057600080fd5b600080fd5b341561024057600080fd5b610275600480803573ffffffffffffffffffffffffffffffffffffffff16906020019091908035906020019091905050611185565b005b341561028257600080fd5b61029c6004808035600019169060200190919050506112cc565b60405180806020018373ffffffffffffffffffffffffffffffffffffffff1673ffffffffffffffffffffffffffffffffffffffff1681526020018281038252848181546001816001161561010002031660029004815260200191508054600181600116156101000203166002900480156103575780601f1061032c57610100808354040283529160200191610357565b820191906000526020600020905b81548152906001019060200180831161033a57829003601f168201915b5050935050505060405180910390f35b341561037257600080fd5b6103cf60048080356000191690602001909190803590602001908201803590602001908080601f0160208091040260200160405190810160405280939291908181526020018383808284378201915050505050509190505061130f565b005b34156103dc57600080fd5b61040360048080356000191690602001909190803560001916906020019091905050611470565b60405180826000191660001916815260200191505060405180910390f35b341561042c57600080fd5b61044660048080356000191690602001909190505061153f565b604051808673ffffffffffffffffffffffffffffffffffffffff1673ffffffffffffffffffffffffffffffffffffffff16815260200185151515158152602001841515151581526020018315151515815260200182600019166000191681526020019550505050505060405180910390f35b34156104c357600080fd5b6104ea600480803560001916906020019091908035600019169060200190919050506116b8565b005b34156104f757600080fd5b610523600480803573ffffffffffffffffffffffffffffffffffffffff16906020019091905050611848565b005b341561053057600080fd5b61054660048080359060200190919050506118e7565b60405180826000191660001916815260200191505060405180910390f35b341561056f57600080fd5b61058960048080356000191690602001909190505061190b565b6040518080602001828103825283818151815260200191508051906020019080838360005b838110156105c95780820151818401526020810190506105ae565b50505050905090810190601f1680156105f65780820380516001836020036101000a031916815260200191505b509250505060405180910390f35b341561060f57600080fd5b61066c60048080356000191690602001909190803590602001908201803590602001908080601f01602080910402602001604051908101604052809392919081815260200183838082843782019150505050505091905050611a6b565b005b341561067957600080fd5b610693600480803560001916906020019091905050611ab9565b005b34156106a057600080fd5b6106ba600480803560001916906020019091905050611afb565b6040518080602001828103825283818151815260200191508051906020019080838360005b838110156106fa5780820151818401526020810190506106df565b50505050905090810190601f1680156107275780820380516001836020036101000a031916815260200191505b509250505060405180910390f35b341561074057600080fd5b61077960048080356000191690602001909190803573ffffffffffffffffffffffffffffffffffffffff16906020019091905050611c3d565b604051808215151515815260200191505060405180910390f35b341561079e57600080fd5b6107a6611e3d565b6040518082815260200191505060405180910390f35b34156107c757600080fd5b610817600480803590602001908201803590602001908080601f01602080910402602001604051908101604052809392919081815260200183838082843782019150505050505091905050611e4a565b005b341561082457600080fd5b61085d60048080356000191690602001909190803573ffffffffffffffffffffffffffffffffffffffff16906020019091905050612078565b604051808215151515815260200191505060405180910390f35b341561088257600080fd5b61089c600480803560001916906020019091905050612246565b60405180826000191660001916815260200191505060405180910390f35b34156108c557600080fd5b6108cd61225e565b604051808260ff1660ff16815260200191505060405180910390f35b34156108f457600080fd5b61092f600480803560001916906020019091908035151590602001909190803515159060200190919080351515906020019091905050612271565b005b341561093c57600080fd5b61097560048080356000191690602001909190803573ffffffffffffffffffffffffffffffffffffffff169060200190919050506124fe565b005b341561098257600080fd5b6109c260048080356000191690602001909190803560ff1690602001909190803560001916906020019091908035600019169060200190919050506125ac565b604051808273ffffffffffffffffffffffffffffffffffffffff1673ffffffffffffffffffffffffffffffffffffffff16815260200191505060405180910390f35b3415610a0f57600080fd5b610a366004808035600019169060200190919080356000191690602001909190505061263f565b005b3415610a4357600080fd5b610a7c60048080356000191690602001909190803573ffffffffffffffffffffffffffffffffffffffff1690602001909190505061290a565b005b3415610a8957600080fd5b610ad660048080356000191690602001909190803573ffffffffffffffffffffffffffffffffffffffff169060200190919080359060200190919080351515906020019091905050612b07565b005b3415610ae357600080fd5b610b06600480803560001916906020019091908035906020019091905050612c49565b604051808273ffffffffffffffffffffffffffffffffffffffff1673ffffffffffffffffffffffffffffffffffffffff16815260200191505060405180910390f35b3415610b5357600080fd5b610b5b612c97565b604051808273ffffffffffffffffffffffffffffffffffffffff1673ffffffffffffffffffffffffffffffffffffffff16815260200191505060405180910390f35b3415610ba857600080fd5b610bc2600480803560001916906020019091905050612cbc565b005b3415610bcf57600080fd5b610c7c6004808035600019169060200190919080356000191690602001909190803590602001908201803590602001908080601f0160208091040260200160405190810160405280939291908181526020018383808284378201915050505050509190803590602001908201803590602001908080601f01602080910402602001604051908101604052809392919081815260200183838082843782019150505050505091905050612ce0565b005b3415610c8957600080fd5b610ca3600480803560001916906020019091905050612fa5565b604051808473ffffffffffffffffffffffffffffffffffffffff1673ffffffffffffffffffffffffffffffffffffffff16815260200183815260200182151515158152602001935050505060405180910390f35b3415610d0257600080fd5b610d1c600480803560001916906020019091905050612ffc565b005b3415610d2957600080fd5b610d316130cf565b604051808273ffffffffffffffffffffffffffffffffffffffff1673ffffffffffffffffffffffffffffffffffffffff16815260200191505060405180910390f35b3415610d7e57600080fd5b610d986004808035600019169060200190919050506130f5565b60405180826000191660001916815260200191505060405180910390f35b3415610dc157600080fd5b610ddb60048080356000191690602001909190505061310d565b005b3415610de857600080fd5b610dfe600480803590602001909190505061353a565b60405180826000191660001916815260200191505060405180910390f35b3415610e2757600080fd5b610e2f61355e565b6040518082815260200191505060405180910390f35b3415610e5057600080fd5b610e8960048080356000191690602001909190803573ffffffffffffffffffffffffffffffffffffffff16906020019091905050613679565b005b3415610e9657600080fd5b610ecf60048080356000191690602001909190803573ffffffffffffffffffffffffffffffffffffffff1690602001909190505061389b565b005b3415610edc57600080fd5b610ef6600480803560001916906020019091905050613abd565b60405180806020018373ffffffffffffffffffffffffffffffffffffffff1673ffffffffffffffffffffffffffffffffffffffff168152602001828103825284818151815260200191508051906020019080838360005b83811015610f68578082015181840152602081019050610f4d565b50505050905090810190601f168015610f955780820380516001836020036101000a031916815260200191505b50935050505060405180910390f35b3415610faf57600080fd5b610fb7613c45565b6040518082815260200191505060405180910390f35b3415610fd857600080fd5b61101160048080356000191690602001909190803573ffffffffffffffffffffffffffffffffffffffff16906020019091905050613c52565b005b341561101e57600080fd5b61104a600480803573ffffffffffffffffffffffffffffffffffffffff16906020019091905050613d39565b005b341561105757600080fd5b61108b6004808035600019169060200190919080356000191690602001909190803560001916906020019091905050613e0e565b005b341561109857600080fd5b6110c4600480803573ffffffffffffffffffffffffffffffffffffffff16906020019091905050613f15565b005b34156110d157600080fd5b6110d9613fb4565b604051808273ffffffffffffffffffffffffffffffffffffffff1673ffffffffffffffffffffffffffffffffffffffff16815260200191505060405180910390f35b341561112657600080fd5b61118360048080356000191690602001909190803590602001908201803590602001908080601f01602080910402602001604051908101604052809392919081815260200183838082843782019150505050505091905050613fda565b005b6000809054906101000a900473ffffffffffffffffffffffffffffffffffffffff1673ffffffffffffffffffffffffffffffffffffffff163373ffffffffffffffffffffffffffffffffffffffff161415156111e057600080fd5b8173ffffffffffffffffffffffffffffffffffffffff1663a9059cbb6000809054906101000a900473ffffffffffffffffffffffffffffffffffffffff16836000604051602001526040518363ffffffff167c0100000000000000000000000000000000000000000000000000000000028152600401808373ffffffffffffffffffffffffffffffffffffffff1673ffffffffffffffffffffffffffffffffffffffff16815260200182815260200192505050602060405180830381600087803b15156112ac57600080fd5b6102c65a03f115156112bd57600080fd5b50505060405180519050505050565b600360205280600052604060002060009150905080600001908060010160009054906101000a900473ffffffffffffffffffffffffffffffffffffffff16905082565b600073ffffffffffffffffffffffffffffffffffffffff1660056000846000191660001916815260200190815260200160002060000160009054906101000a900473ffffffffffffffffffffffffffffffffffffffff1673ffffffffffffffffffffffffffffffffffffffff1614158015611390575061138f8233611c3d565b5b806113a157506113a08233612078565b5b15156113ac57600080fd5b81600019163373ffffffffffffffffffffffffffffffffffffffff167f751585bc5f774dca8c2042dbb5677cb7b03ed3032d1b7c5c198243c9d75b56f542846040518083815260200180602001828103825283818151815260200191508051906020019080838360005b83811015611431578082015181840152602081019050611416565b50505050905090810190601f16801561145e5780820380516001836020036101000a031916815260200191505b50935050505060405180910390a35050565b600082600073ffffffffffffffffffffffffffffffffffffffff1660056000836000191660001916815260200190815260200160002060000160009054906101000a900473ffffffffffffffffffffffffffffffffffffffff1673ffffffffffffffffffffffffffffffffffffffff16141515156114ed57600080fd5b6008600085856040518083600019166000191681526020018260001916600019168152602001925050506040518091039020600019166000191681526020019081526020016000205491505092915050565b600080600080600085600073ffffffffffffffffffffffffffffffffffffffff1660056000836000191660001916815260200190815260200160002060000160009054906101000a900473ffffffffffffffffffffffffffffffffffffffff1673ffffffffffffffffffffffffffffffffffffffff16141515156115c257600080fd5b60056000886000191660001916815260200190815260200160002060000160009054906101000a900473ffffffffffffffffffffffffffffffffffffffff1660056000896000191660001916815260200190815260200160002060000160149054906101000a900460ff16600560008a6000191660001916815260200190815260200160002060000160159054906101000a900460ff16600560008b6000191660001916815260200190815260200160002060000160169054906101000a900460ff16600560008c6000191660001916815260200190815260200160002060010154955095509550955095505091939590929450565b816116c38133611c3d565b15156116ce57600080fd5b81600073ffffffffffffffffffffffffffffffffffffffff1660056000836000191660001916815260200190815260200160002060000160009054906101000a900473ffffffffffffffffffffffffffffffffffffffff1673ffffffffffffffffffffffffffffffffffffffff161415151561174957600080fd5b8360056000826000191660001916815260200190815260200160002060000160159054906101000a900460ff16151561178157600080fd5b6000600760008360001916600019168152602001908152602001600020805490501415156117ae57600080fd5b8360056000826000191660001916815260200190815260200160002060000160159054906101000a900460ff1615156117e657600080fd5b60006007600083600019166000191681526020019081526020016000208054905014151561181357600080fd5b61181c86612ffc565b84600a600088600019166000191681526020019081526020016000208160001916905550505050505050565b6000809054906101000a900473ffffffffffffffffffffffffffffffffffffffff1673ffffffffffffffffffffffffffffffffffffffff163373ffffffffffffffffffffffffffffffffffffffff161415156118a357600080fd5b80600160006101000a81548173ffffffffffffffffffffffffffffffffffffffff021916908373ffffffffffffffffffffffffffffffffffffffff16021790555050565b6006818154811015156118f657fe5b90600052602060002090016000915090505481565b611913614172565b81600073ffffffffffffffffffffffffffffffffffffffff1660056000836000191660001916815260200190815260200160002060000160009054906101000a900473ffffffffffffffffffffffffffffffffffffffff1673ffffffffffffffffffffffffffffffffffffffff161415151561198e57600080fd5b6003600060056000866000191660001916815260200190815260200160002060010154600019166000191681526020019081526020016000206000018054600181600116156101000203166002900480601f016020809104026020016040519081016040528092919081815260200182805460018160011615610100020316600290048015611a5e5780601f10611a3357610100808354040283529160200191611a5e565b820191906000526020600020905b815481529060010190602001808311611a4157829003601f168201915b5050505050915050919050565b81611a768133612078565b1515611a8157600080fd5b816003600085600019166000191681526020019081526020016000206000019080519060200190611ab3929190614186565b50505050565b80611ac48133611c3d565b1515611acf57600080fd5b6000600102600a6000846000191660001916815260200190815260200160002081600019169055505050565b611b03614172565b81600073ffffffffffffffffffffffffffffffffffffffff1660036000836000191660001916815260200190815260200160002060010160009054906101000a900473ffffffffffffffffffffffffffffffffffffffff1673ffffffffffffffffffffffffffffffffffffffff1614151515611b7e57600080fd5b6003600084600019166000191681526020019081526020016000206000018054600181600116156101000203166002900480601f016020809104026020016040519081016040528092919081815260200182805460018160011615610100020316600290048015611c305780601f10611c0557610100808354040283529160200191611c30565b820191906000526020600020905b815481529060010190602001808311611c1357829003601f168201915b5050505050915050919050565b60008083600073ffffffffffffffffffffffffffffffffffffffff1660056000836000191660001916815260200190815260200160002060000160009054906101000a900473ffffffffffffffffffffffffffffffffffffffff1673ffffffffffffffffffffffffffffffffffffffff1614151515611cbb57600080fd5b8373ffffffffffffffffffffffffffffffffffffffff1660056000876000191660001916815260200190815260200160002060000160009054906101000a900473ffffffffffffffffffffffffffffffffffffffff1673ffffffffffffffffffffffffffffffffffffffff161415611d365760019250611e35565b60056000866000191660001916815260200190815260200160002060000160149054906101000a900460ff1615611e3057600091505b60076000866000191660001916815260200190815260200160002080549050821015611e2f578373ffffffffffffffffffffffffffffffffffffffff1660076000876000191660001916815260200190815260200160002083815481101515611dd157fe5b906000526020600020900160009054906101000a900473ffffffffffffffffffffffffffffffffffffffff1673ffffffffffffffffffffffffffffffffffffffff161415611e225760019250611e35565b8180600101925050611d6c565b5b600092505b505092915050565b6000600480549050905090565b60003382604051808373ffffffffffffffffffffffffffffffffffffffff1673ffffffffffffffffffffffffffffffffffffffff166c0100000000000000000000000002815260140182805190602001908083835b602083101515611ec45780518252602082019150602081019050602083039250611e9f565b6001836020036101000a0380198251168184511680821785525050505050509050019250505060405180910390209050600073ffffffffffffffffffffffffffffffffffffffff1660036000836000191660001916815260200190815260200160002060010160009054906101000a900473ffffffffffffffffffffffffffffffffffffffff1673ffffffffffffffffffffffffffffffffffffffff16141515611f6d57600080fd5b3360036000836000191660001916815260200190815260200160002060010160006101000a81548173ffffffffffffffffffffffffffffffffffffffff021916908373ffffffffffffffffffffffffffffffffffffffff160217905550816003600083600019166000191681526020019081526020016000206000019080519060200190611ffc929190614186565b50600480548060010182816120119190614206565b91600052602060002090016000839091909150906000191690555080600019163373ffffffffffffffffffffffffffffffffffffffff167fd36f66ac721d427dbc1c2a9446595112bde319fb09bf868c7e6352d8da9b4fc560405160405180910390a35050565b60008083600073ffffffffffffffffffffffffffffffffffffffff1660036000836000191660001916815260200190815260200160002060010160009054906101000a900473ffffffffffffffffffffffffffffffffffffffff1673ffffffffffffffffffffffffffffffffffffffff16141515156120f657600080fd5b8373ffffffffffffffffffffffffffffffffffffffff1660036000876000191660001916815260200190815260200160002060010160009054906101000a900473ffffffffffffffffffffffffffffffffffffffff1673ffffffffffffffffffffffffffffffffffffffff161415612171576001925061223e565b600091505b60076000866000191660001916815260200190815260200160002080549050821015612239578373ffffffffffffffffffffffffffffffffffffffff16600760008760001916600019168152602001908152602001600020838154811015156121db57fe5b906000526020600020900160009054906101000a900473ffffffffffffffffffffffffffffffffffffffff1673ffffffffffffffffffffffffffffffffffffffff16141561222c576001925061223e565b8180600101925050612176565b600092505b505092915050565b600a6020528060005260406000206000915090505481565b600260149054906101000a900460ff1681565b83600073ffffffffffffffffffffffffffffffffffffffff1660056000836000191660001916815260200190815260200160002060000160009054906101000a900473ffffffffffffffffffffffffffffffffffffffff1673ffffffffffffffffffffffffffffffffffffffff16141515156122ec57600080fd5b600560008660001916600019168152602001908152602001600020600101546123158133612078565b151561232057600080fd5b8460056000886000191660001916815260200190815260200160002060000160146101000a81548160ff02191690831515021790555060001515851515141561238d5760006007600088600019166000191681526020019081526020016000208161238b9190614232565b505b8360056000886000191660001916815260200190815260200160002060000160156101000a81548160ff0219169083151502179055506000151584151514156123f9576000600102600a6000886000191660001916815260200190815260200160002081600019169055505b8260056000886000191660001916815260200190815260200160002060000160166101000a81548160ff0219169083151502179055506000151583151514156124f657600060096000886000191660001916815260200190815260200160002060000160006101000a81548173ffffffffffffffffffffffffffffffffffffffff021916908373ffffffffffffffffffffffffffffffffffffffff160217905550600060096000886000191660001916815260200190815260200160002060010181905550600060096000886000191660001916815260200190815260200160002060020160006101000a81548160ff0219169083151502179055505b505050505050565b816125098133612078565b151561251457600080fd5b600015156125228484612078565b151514156125a7576007600084600019166000191681526020019081526020016000208054806001018281612557919061425e565b9160005260206000209001600084909190916101000a81548173ffffffffffffffffffffffffffffffffffffffff021916908373ffffffffffffffffffffffffffffffffffffffff160217905550505b505050565b6000600185858585604051600081526020016040526000604051602001526040518085600019166000191681526020018460ff1660ff16815260200183600019166000191681526020018260001916600019168152602001945050505050602060405160208103908084039060008661646e5a03f1151561262c57600080fd5b5050602060405103519050949350505050565b8161264a8133611c3d565b151561265557600080fd5b81600073ffffffffffffffffffffffffffffffffffffffff1660056000836000191660001916815260200190815260200160002060000160009054906101000a900473ffffffffffffffffffffffffffffffffffffffff1673ffffffffffffffffffffffffffffffffffffffff16141515156126d057600080fd5b8360056000826000191660001916815260200190815260200160002060000160159054906101000a900460ff16151561270857600080fd5b60006007600083600019166000191681526020019081526020016000208054905014151561273557600080fd5b8360056000826000191660001916815260200190815260200160002060000160159054906101000a900460ff16151561276d57600080fd5b60006007600083600019166000191681526020019081526020016000208054905014151561279a57600080fd5b8560001916600a6000876000191660001916815260200190815260200160002054600019161415156127cb57600080fd5b856000191685600019167fe8029b3dfdd85fbfbb1e010958afbb9389efda415a6c86da17733916fc6c871c60405160405180910390a360056000866000191660001916815260200190815260200160002060000160009054906101000a900473ffffffffffffffffffffffffffffffffffffffff1660056000886000191660001916815260200190815260200160002060000160006101000a81548173ffffffffffffffffffffffffffffffffffffffff021916908373ffffffffffffffffffffffffffffffffffffffff1602179055503360056000876000191660001916815260200190815260200160002060000160006101000a81548173ffffffffffffffffffffffffffffffffffffffff021916908373ffffffffffffffffffffffffffffffffffffffff16021790555061290285611ab9565b505050505050565b6000826129178133612078565b151561292257600080fd5b8342846040518084600019166000191681526020018381526020018273ffffffffffffffffffffffffffffffffffffffff1673ffffffffffffffffffffffffffffffffffffffff166c01000000000000000000000000028152601401935050505060405180910390209150600073ffffffffffffffffffffffffffffffffffffffff1660056000846000191660001916815260200190815260200160002060000160009054906101000a900473ffffffffffffffffffffffffffffffffffffffff1673ffffffffffffffffffffffffffffffffffffffff16141515612a0657600080fd5b8260056000846000191660001916815260200190815260200160002060000160006101000a81548173ffffffffffffffffffffffffffffffffffffffff021916908373ffffffffffffffffffffffffffffffffffffffff16021790555083600560008460001916600019168152602001908152602001600020600101816000191690555060068054806001018281612a9e9190614206565b91600052602060002090016000849091909150906000191690555081600019168373ffffffffffffffffffffffffffffffffffffffff167f86e615d05af39b08690ecc0b847f5622a2664e0d944f3381f2088fcd0a4cbfb760405160405180910390a350505050565b83612b128133611c3d565b1515612b1d57600080fd5b8460056000826000191660001916815260200190815260200160002060000160169054906101000a900460ff161515612b5557600080fd5b600060076000836000191660001916815260200190815260200160002080549050141515612b8257600080fd5b612b8b86611ab9565b8460096000886000191660001916815260200190815260200160002060000160006101000a81548173ffffffffffffffffffffffffffffffffffffffff021916908373ffffffffffffffffffffffffffffffffffffffff16021790555083600960008860001916600019168152602001908152602001600020600101819055508260096000886000191660001916815260200190815260200160002060020160006101000a81548160ff021916908315150217905550505050505050565b600760205281600052604060002081815481101515612c6457fe5b90600052602060002090016000915091509054906101000a900473ffffffffffffffffffffffffffffffffffffffff1681565b6000809054906101000a900473ffffffffffffffffffffffffffffffffffffffff1681565b80612cc78133612078565b1515612cd257600080fd5b612cdc823361290a565b5050565b600073ffffffffffffffffffffffffffffffffffffffff1660056000866000191660001916815260200190815260200160002060000160009054906101000a900473ffffffffffffffffffffffffffffffffffffffff1673ffffffffffffffffffffffffffffffffffffffff1614158015612d615750612d608433611c3d565b5b80612d725750612d718433612078565b5b1515612d7d57600080fd5b600073ffffffffffffffffffffffffffffffffffffffff1660056000856000191660001916815260200190815260200160002060000160009054906101000a900473ffffffffffffffffffffffffffffffffffffffff1673ffffffffffffffffffffffffffffffffffffffff16141580612e625750600073ffffffffffffffffffffffffffffffffffffffff1660036000856000191660001916815260200190815260200160002060010160009054906101000a900473ffffffffffffffffffffffffffffffffffffffff1673ffffffffffffffffffffffffffffffffffffffff1614155b1515612e6d57600080fd5b826000191684600019163373ffffffffffffffffffffffffffffffffffffffff167fa77bb7bcf55a99a19081ec9bc0859e390dcf444472438306fa9206c97fde509b428686604051808481526020018060200180602001838103835285818151815260200191508051906020019080838360005b83811015612efc578082015181840152602081019050612ee1565b50505050905090810190601f168015612f295780820380516001836020036101000a031916815260200191505b50838103825284818151815260200191508051906020019080838360005b83811015612f62578082015181840152602081019050612f47565b50505050905090810190601f168015612f8f5780820380516001836020036101000a031916815260200191505b509550505050505060405180910390a450505050565b60096020528060005260406000206000915090508060000160009054906101000a900473ffffffffffffffffffffffffffffffffffffffff16908060010154908060020160009054906101000a900460ff16905083565b806130078133611c3d565b151561301257600080fd5b600060096000846000191660001916815260200190815260200160002060000160006101000a81548173ffffffffffffffffffffffffffffffffffffffff021916908373ffffffffffffffffffffffffffffffffffffffff160217905550600060096000846000191660001916815260200190815260200160002060010181905550600060096000846000191660001916815260200190815260200160002060020160006101000a81548160ff0219169083151502179055505050565b600260009054906101000a900473ffffffffffffffffffffffffffffffffffffffff1681565b60086020528060005260406000206000915090505481565b8060056000826000191660001916815260200190815260200160002060000160169054906101000a900460ff16151561314557600080fd5b60006007600083600019166000191681526020019081526020016000208054905014151561317257600080fd5b61317a61355e565b60096000846000191660001916815260200190815260200160002060010154111515156131a657600080fd5b3373ffffffffffffffffffffffffffffffffffffffff1660096000846000191660001916815260200190815260200160002060000160009054906101000a900473ffffffffffffffffffffffffffffffffffffffff1673ffffffffffffffffffffffffffffffffffffffff1614151561321e57600080fd5b600160009054906101000a900473ffffffffffffffffffffffffffffffffffffffff1673ffffffffffffffffffffffffffffffffffffffff166323b872dd3360056000866000191660001916815260200190815260200160002060000160009054906101000a900473ffffffffffffffffffffffffffffffffffffffff16600960008760001916600019168152602001908152602001600020600101546000604051602001526040518463ffffffff167c0100000000000000000000000000000000000000000000000000000000028152600401808473ffffffffffffffffffffffffffffffffffffffff1673ffffffffffffffffffffffffffffffffffffffff1681526020018373ffffffffffffffffffffffffffffffffffffffff1673ffffffffffffffffffffffffffffffffffffffff1681526020018281526020019350505050602060405180830381600087803b151561337b57600080fd5b6102c65a03f1151561338c57600080fd5b50505060405180519050151561339e57fe5b3373ffffffffffffffffffffffffffffffffffffffff1660056000846000191660001916815260200190815260200160002060000160009054906101000a900473ffffffffffffffffffffffffffffffffffffffff1673ffffffffffffffffffffffffffffffffffffffff167fff5a258188f956e352ba67aa74078121714884d40a19d4219dc9e9aadcc30cef84600960008760001916600019168152602001908152602001600020600101546040518083600019166000191681526020018281526020019250505060405180910390a33360056000846000191660001916815260200190815260200160002060000160006101000a81548173ffffffffffffffffffffffffffffffffffffffff021916908373ffffffffffffffffffffffffffffffffffffffff16021790555060096000836000191660001916815260200190815260200160002060020160009054906101000a900460ff1660056000846000191660001916815260200190815260200160002060000160166101000a81548160ff02191690831515021790555061353682612ffc565b5050565b60048181548110151561354957fe5b90600052602060002090016000915090505481565b6000600160009054906101000a900473ffffffffffffffffffffffffffffffffffffffff1673ffffffffffffffffffffffffffffffffffffffff1663dd62ed3e33306000604051602001526040518363ffffffff167c0100000000000000000000000000000000000000000000000000000000028152600401808373ffffffffffffffffffffffffffffffffffffffff1673ffffffffffffffffffffffffffffffffffffffff1681526020018273ffffffffffffffffffffffffffffffffffffffff1673ffffffffffffffffffffffffffffffffffffffff16815260200192505050602060405180830381600087803b151561365957600080fd5b6102c65a03f1151561366a57600080fd5b50505060405180519050905090565b6000826136868133612078565b151561369157600080fd5b600091505b60076000856000191660001916815260200190815260200160002080549050821015613895578273ffffffffffffffffffffffffffffffffffffffff16600760008660001916600019168152602001908152602001600020838154811015156136fb57fe5b906000526020600020900160009054906101000a900473ffffffffffffffffffffffffffffffffffffffff1673ffffffffffffffffffffffffffffffffffffffff16141561388857600160076000866000191660001916815260200190815260200160002080549050038214151561385457600760008560001916600019168152602001908152602001600020600160076000876000191660001916815260200190815260200160002080549050038154811015156137b657fe5b906000526020600020900160009054906101000a900473ffffffffffffffffffffffffffffffffffffffff166007600086600019166000191681526020019081526020016000208381548110151561380a57fe5b906000526020600020900160006101000a81548173ffffffffffffffffffffffffffffffffffffffff021916908373ffffffffffffffffffffffffffffffffffffffff1602179055505b6007600085600019166000191681526020019081526020016000208054809190600190036138829190614232565b50613895565b8180600101925050613696565b50505050565b6000826138a88133611c3d565b15156138b357600080fd5b600091505b60076000856000191660001916815260200190815260200160002080549050821015613ab7578273ffffffffffffffffffffffffffffffffffffffff166007600086600019166000191681526020019081526020016000208381548110151561391d57fe5b906000526020600020900160009054906101000a900473ffffffffffffffffffffffffffffffffffffffff1673ffffffffffffffffffffffffffffffffffffffff161415613aaa576001600760008660001916600019168152602001908152602001600020805490500382141515613a7657600760008560001916600019168152602001908152602001600020600160076000876000191660001916815260200190815260200160002080549050038154811015156139d857fe5b906000526020600020900160009054906101000a900473ffffffffffffffffffffffffffffffffffffffff1660076000866000191660001916815260200190815260200160002083815481101515613a2c57fe5b906000526020600020900160006101000a81548173ffffffffffffffffffffffffffffffffffffffff021916908373ffffffffffffffffffffffffffffffffffffffff1602179055505b600760008560001916600019168152602001908152602001600020805480919060019003613aa49190614232565b50613ab7565b81806001019250506138b8565b50505050565b613ac5614172565b600082600073ffffffffffffffffffffffffffffffffffffffff1660036000836000191660001916815260200190815260200160002060010160009054906101000a900473ffffffffffffffffffffffffffffffffffffffff1673ffffffffffffffffffffffffffffffffffffffff1614151515613b4257600080fd5b60036000856000191660001916815260200190815260200160002060000160036000866000191660001916815260200190815260200160002060010160009054906101000a900473ffffffffffffffffffffffffffffffffffffffff16818054600181600116156101000203166002900480601f016020809104026020016040519081016040528092919081815260200182805460018160011615610100020316600290048015613c345780601f10613c0957610100808354040283529160200191613c34565b820191906000526020600020905b815481529060010190602001808311613c1757829003601f168201915b505050505091509250925050915091565b6000600680549050905090565b81613c5d8133611c3d565b1515613c6857600080fd5b8260056000826000191660001916815260200190815260200160002060000160149054906101000a900460ff161515613ca057600080fd5b60001515613cae8585611c3d565b15151415613d33576007600085600019166000191681526020019081526020016000208054806001018281613ce3919061425e565b9160005260206000209001600085909190916101000a81548173ffffffffffffffffffffffffffffffffffffffff021916908373ffffffffffffffffffffffffffffffffffffffff160217905550505b50505050565b6000809054906101000a900473ffffffffffffffffffffffffffffffffffffffff1673ffffffffffffffffffffffffffffffffffffffff163373ffffffffffffffffffffffffffffffffffffffff16141515613d9457600080fd5b600073ffffffffffffffffffffffffffffffffffffffff168173ffffffffffffffffffffffffffffffffffffffff16141515613e0b57806000806101000a81548173ffffffffffffffffffffffffffffffffffffffff021916908373ffffffffffffffffffffffffffffffffffffffff1602179055505b50565b82600073ffffffffffffffffffffffffffffffffffffffff1660056000836000191660001916815260200190815260200160002060000160009054906101000a900473ffffffffffffffffffffffffffffffffffffffff1673ffffffffffffffffffffffffffffffffffffffff1614151515613e8957600080fd5b60056000856000191660001916815260200190815260200160002060010154613eb28133612078565b1515613ebd57600080fd5b8260086000878760405180836000191660001916815260200182600019166000191681526020019250505060405180910390206000191660001916815260200190815260200160002081600019169055505050505050565b6000809054906101000a900473ffffffffffffffffffffffffffffffffffffffff1673ffffffffffffffffffffffffffffffffffffffff163373ffffffffffffffffffffffffffffffffffffffff16141515613f7057600080fd5b80600260006101000a81548173ffffffffffffffffffffffffffffffffffffffff021916908373ffffffffffffffffffffffffffffffffffffffff16021790555050565b600160009054906101000a900473ffffffffffffffffffffffffffffffffffffffff1681565b81600073ffffffffffffffffffffffffffffffffffffffff1660056000836000191660001916815260200190815260200160002060000160009054906101000a900473ffffffffffffffffffffffffffffffffffffffff1673ffffffffffffffffffffffffffffffffffffffff161415151561405557600080fd5b6005600084600019166000191681526020019081526020016000206001015461407e8133612078565b151561408957600080fd5b836000191660056000866000191660001916815260200190815260200160002060010154600019163373ffffffffffffffffffffffffffffffffffffffff167fdb85dc5d1abaeff114eb7b2c24069f51aec4e241c11d014937f33fe8b46a8df942876040518083815260200180602001828103825283818151815260200191508051906020019080838360005b83811015614131578082015181840152602081019050614116565b50505050905090810190601f16801561415e5780820380516001836020036101000a031916815260200191505b50935050505060405180910390a450505050565b602060405190810160405280600081525090565b828054600181600116156101000203166002900490600052602060002090601f016020900481019282601f106141c757805160ff19168380011785556141f5565b828001600101855582156141f5579182015b828111156141f45782518255916020019190600101906141d9565b5b509050614202919061428a565b5090565b81548183558181151161422d5781836000526020600020918201910161422c91906142af565b5b505050565b81548183558181151161425957818360005260206000209182019101614258919061428a565b5b505050565b81548183558181151161428557818360005260206000209182019101614284919061428a565b5b505050565b6142ac91905b808211156142a8576000816000905550600101614290565b5090565b90565b6142d191905b808211156142cd5760008160009055506001016142b5565b5090565b905600a165627a7a72305820dbafb3e0782094ffab726cf188a3c59f14a50a2bc8c42facda0621641be5aa860029",
  "source": "pragma solidity ^0.4.15;\n\nimport 'zeppelin-solidity/contracts/ownership/Ownable.sol';\nimport 'zeppelin-solidity/contracts/token/StandardToken.sol';\n\n/**\n* Health Decentralized Record Service (DRS)\n* This contract enables creation of services and keys which can\n* be managed, shared, traded, and sold using Health Cash (HLTH).\n*\n* These keys enable gatekeeper services and\n* cryptographically secure data exchanges.\n*/\n\ncontract HealthDRS is Ownable {\n\n   StandardToken public token;\n   address public latestContract = address(this);\n   uint8 public version = 1;\n\n   struct Service {\n       string url;\n       address owner;\n   }\n\n   struct Key {\n       address owner;\n       bool canShare;\n       bool canTrade;\n       bool canSell;\n       bytes32 service;\n   }\n\n   struct SalesOffer {\n       address buyer;\n       uint price;\n       bool canSell;\n   }\n\n   mapping (bytes32 => Service) public services;\n   bytes32[] public serviceList;\n\n   mapping(bytes32 => Key) keys;\n   bytes32[] public keyList;\n\n   mapping(bytes32 => address[]) public owners;\n   mapping(bytes32 => bytes32) public keyData;       \n   mapping(bytes32 => SalesOffer) public salesOffers;\n   mapping(bytes32 => bytes32) public tradeOffers;   \n\n   event ServiceCreated(address indexed _owner, bytes32 indexed _service);\n   event KeyCreated(address indexed _owner, bytes32 indexed _key);\n   event KeySold(bytes32 _key, address indexed _seller, address indexed _buyer, uint _price);\n   event KeysTraded(bytes32 indexed _key1, bytes32 indexed _key2);\n   event Access(address indexed _owner, bytes32 indexed _from, bytes32 indexed _to, uint _time, string _data);\n   event Message(address indexed _owner, bytes32 indexed _from, bytes32 indexed _to, uint _time, string _category, string _data);   \n   event Log(address indexed _owner, bytes32 indexed _from, uint _time, string _data);       \n\n   modifier validKey(bytes32 key) {\n     require(keys[key].owner != address(0));\n     _;\n   }\n\n   modifier validService(bytes32 service) {\n     require(services[service].owner != address(0));\n     _;\n   }\n\n   modifier ownsKey(bytes32 key) {\n       require(isKeyOwner(key, msg.sender));\n       _;\n   }\n   modifier ownsService(bytes32 service) {\n       require(isServiceOwner(service, msg.sender));\n       _;\n   }\n\n   modifier canSell(bytes32 key) {\n     require(keys[key].canSell);\n     require(owners[key].length == 0);     \n     _;\n   }\n\n   modifier canTrade(bytes32 key) {\n     require(keys[key].canTrade);\n     require(owners[key].length == 0);          \n     _;\n   }\n\n   modifier canShare(bytes32 key) {\n     require(keys[key].canShare);\n     _;\n   }\n\n   //prevent accidentally sending/trapping ether\n   function() {\n       revert(); \n   } \n\n  //require token specified at deployment\n  function HealthDRS(StandardToken _token) {\n      token = _token;\n  }\n\n   function isKeyOwner(bytes32 key, address account)\n       public\n       constant\n       validKey(key)\n       returns (bool)\n   {\n       if (keys[key].owner == account) {\n           return true;\n       } else {\n           if (keys[key].canShare) {\n               for (uint i = 0; i < owners[key].length; i++) {\n                   if (owners[key][i] == account) {\n                       return true;\n                   }\n               }\n           }\n       }\n       return false;\n   }\n\n   function isServiceOwner(bytes32 service, address account)\n       public\n       constant\n       validService(service)\n       returns (bool)\n   {\n       if (services[service].owner == account) {\n           return true;\n       } else {\n           for (uint i = 0; i < owners[service].length; i++) {\n               if (owners[service][i] == account) {\n                   return true;\n               }\n          }\n       }\n       return false;\n   }\n\n   function getUrl(bytes32 service)\n       public\n       constant\n       validService(service)\n       returns (string)\n   {\n      return services[service].url;\n   }\n\n   function getUrlFromKey(bytes32 key)\n       public\n       constant\n       validKey(key)\n       returns (string)\n   {\n       return services[keys[key].service].url;\n   }\n\n   function updateUrl(bytes32 service, string url)\n       public\n       ownsService(service)\n   {\n      services[service].url = url;\n   }\n\n   //user must authorize this contract to spend Health Cash (HLTH)\n   function authorizedToSpend() public constant returns (uint) {\n       return token.allowance(msg.sender, address(this));\n   }\n\n   //allow owner access to tokens erroneously transferred to this contract\n   function recoverTokens(StandardToken _token, uint amount) public onlyOwner {\n       _token.transfer(owner, amount);\n   }\n \n   function setHealthCashToken(StandardToken _token) public onlyOwner {\n       token = _token;\n   }\n\n   function setLatestContract(address _contract) public onlyOwner {\n       latestContract = _contract;\n   }\n\n  /**\n  * Create Services & Keys\n  * Keys can also be issued to accounts\n  */\n   function createService(string url) public {\n       bytes32 id = keccak256(msg.sender, url);\n       require(services[id].owner == address(0)); //prevent overwriting\n       services[id].owner = msg.sender;\n       services[id].url = url;\n       serviceList.push(id);\n       ServiceCreated(msg.sender, id);\n   }\n\n   function createKey(bytes32 service)\n       public\n       ownsService(service)       \n   {\n       issueKey(service, msg.sender);\n   }\n  \n   function issueKey(bytes32 service, address issueTo)\n       public\n       ownsService(service) \n   {\n       bytes32 id = keccak256(service, now, issueTo);\n       require(keys[id].owner == address(0));\n       keys[id].owner = issueTo;      \n       keys[id].service = service;\n       keyList.push(id);       \n       KeyCreated(issueTo, id);       \n   }       \n\n  /**\n  * Share Services and Keys\n  * allow owners to authorize other accounts\n  * a service can disable sharing for their keys.\n  * Can also unshare.\n  */\n   function shareKey(bytes32 key, address account)\n       public\n       ownsKey(key)\n       canShare(key)\n   {\n       if (isKeyOwner(key, account) == false) {\n           owners[key].push(account);\n       }\n   }\n\n   function shareService(bytes32 service, address account)\n       public\n       ownsService(service)\n   {\n       if (isServiceOwner(service, account) == false) {\n           owners[service].push(account);\n       }\n   }\n\n   function unshareKey(bytes32 key, address account)\n       public\n       ownsKey(key)\n   {\n       for (uint i = 0; i < owners[key].length; i++) {\n           if (owners[key][i] == account) {\n               if (i != owners[key].length - 1) {\n                   owners[key][i] = owners[key][owners[key].length - 1];\n               }\n               owners[key].length--;\n               break;\n           }\n       }\n   }\n\n   function unshareService(bytes32 service, address account)\n       public\n       ownsService(service)\n   {\n       for (uint i = 0; i < owners[service].length; i++) {\n           if (owners[service][i] == account) {\n               if (i != owners[service].length - 1) {\n                   owners[service][i] = owners[service][owners[service].length - 1];\n               }\n               owners[service].length--;\n               break;\n           }\n       }\n   }\n\n   /**\n   * Sell Keys\n   * Services have to authorize keys for sale.\n   * Key owners can disable key selling at time\n   * of sale to prevent re-selling.\n   */\n   function createSalesOffer(bytes32 key, address buyer, uint price, bool _canSell)\n       public\n       ownsKey(key)\n       canSell(key)\n   {\n       //cancel trade offer & create sales offer\n       cancelTradeOffer(key);\n       salesOffers[key].buyer = buyer;\n       salesOffers[key].price = price;\n       salesOffers[key].canSell = _canSell;       \n   }\n\n   function cancelSalesOffer(bytes32 key)\n       public\n       ownsKey(key)\n   {\n       salesOffers[key].buyer = address(0);\n       salesOffers[key].price = 0;\n       salesOffers[key].canSell = false;\n   }\n\n   function purchaseKey(bytes32 key)\n       public\n       canSell(key)               \n   {\n\n      //require explicit authority to spend tokens on the purchasers behalf\n      require(salesOffers[key].price <= authorizedToSpend());\n      require(salesOffers[key].buyer == msg.sender);\n\n      /**\n      * Price in HLTH tokens is transferred from the purchaser\n      * to the primary owner of the key.\n      */\n      assert(token.transferFrom(msg.sender, keys[key].owner, salesOffers[key].price));\n     \n      KeySold(key, keys[key].owner, msg.sender, salesOffers[key].price);\n      keys[key].owner = msg.sender;\n\n      //set canSell - allows for non-resellable keys\n      keys[key].canSell = salesOffers[key].canSell;\n\n      //remove sales offer\n      cancelSalesOffer(key);\n   }\n\n   /**\n   * Trade keys\n   * both keys have to be authorized\n   * to trade by their respective services.\n   */\n    function createTradeOffer(bytes32 have, bytes32 want) \n        public\n        ownsKey(have)\n        validKey(want)        \n        canTrade(have)       \n        canTrade(want)               \n    {\n        //cancel sales offer & create a trade offer\n        cancelSalesOffer(have);\n        tradeOffers[have] = want;\n    }\n\n   function cancelTradeOffer(bytes32 key)\n       public\n       ownsKey(key)\n   {\n       tradeOffers[key] = bytes32(0); //remove the tradeOffer\n   }\n\n    function tradeKey(bytes32 have, bytes32 want)\n        public\n        ownsKey(have)\n        validKey(want)           \n        canTrade(have)       \n        canTrade(want)       \n    {\n        require(tradeOffers[want] == have);\n         \n        KeysTraded(want, have);\n        //complete the trade\n        keys[have].owner = keys[want].owner;\n        keys[want].owner = msg.sender;\n\n        //remove trade offer\n        cancelTradeOffer(want);\n    }\n\n   /**\n   * Manage Keys\n   * Service owner can set key permissions\n   * disabling sharing, trading, or selling\n   * removes shared owners, active trade\n   * offers, and active sales offers respectively\n   *\n   * Should also be able to get a key and service,\n   * get a count of keys and services, and get\n   * a key and service key from the respective\n   * lists.\n   */\n   //service owner can set permissions\n   function setKeyPermissions(\n       bytes32 key,\n       bool canShare_,\n       bool canTrade_,\n       bool canSell_)\n       public\n       validKey(key)\n       ownsService(keys[key].service)          \n   {\n       keys[key].canShare = canShare_;\n       if (canShare_ == false) {\n           owners[key].length = 0;\n       }\n\n       keys[key].canTrade = canTrade_;\n       if (canTrade_ == false) {\n           tradeOffers[key] = bytes32(0);\n       }\n\n       keys[key].canSell = canSell_;\n       if (canSell_ == false) {               \n           salesOffers[key].buyer = address(0);\n           salesOffers[key].price = 0;\n           salesOffers[key].canSell = false;           \n       }           \n\n   }\n\n   function getServiceCount() public constant returns (uint) {\n       return serviceList.length;\n   }\n\n   function getKeyCount() public constant returns (uint) {\n       return keyList.length;\n   }\n\n   function getService(bytes32 service)\n       public\n       constant\n       validService(service)\n       returns(string, address)\n   {\n      return (services[service].url, services[service].owner);\n   }\n\n   function getKey(bytes32 key)\n       public\n       constant\n       validKey(key)\n       returns(address, bool, bool, bool, bytes32)\n   {\n      return (keys[key].owner,\n              keys[key].canShare,\n              keys[key].canTrade,\n              keys[key].canSell,\n              keys[key].service);\n   }\n\n   /**\n   * Key Data\n   * A service can store public data for its keys.\n   */\n   function setKeyData(bytes32 key, bytes32 dataKey, bytes32 dataValue)\n       public\n       validKey(key)\n       ownsService(keys[key].service)       \n   {\n       keyData[keccak256(key,dataKey)] = dataValue;\n   }\n  \n   function getKeyData(bytes32 key, bytes32 dataKey)\n       public\n       constant\n       validKey(key)\n       returns (bytes32)\n   {\n       return keyData[keccak256(key,dataKey)];\n   }\n\n   /**\n   * ecrecover passthrough\n   */\n   function recoverAddress(\n       bytes32 msgHash,\n       uint8 v,\n       bytes32 r,\n       bytes32 s)\n       constant\n       returns (address)\n   {\n     return ecrecover(msgHash, v, r, s);\n   }\n\n   /**\n   * Logging & Messaging\n   * functions for creating an auditable record of activity.\n   * A service can log access from any of its keys.\n   */\n   function logAccess(bytes32 key, string data)\n       public\n       validKey(key)\n       ownsService(keys[key].service)\n   {\n       Access(msg.sender, keys[key].service, key, now, data);\n   }\n\n   //services and keys can log messages to each other\n   function message(bytes32 from, bytes32 to, string category, string data)\n       public\n   {\n       require((keys[from].owner != address(0) && isKeyOwner(from, msg.sender)) ||\n               isServiceOwner(from, msg.sender));\n       require(keys[to].owner != address(0) || services[to].owner != address(0));\n\n       Message(msg.sender, from, to, now, category, data);\n   }\n\n   //any key or service can log\n   function log(bytes32 from, string data)\n       public\n   {\n       require((keys[from].owner != address(0) && isKeyOwner(from, msg.sender)) || \n               isServiceOwner(from, msg.sender));\n\n       Log(msg.sender, from, now, data);\n   }\n\n}\n",
  "sourcePath": "/media/david/Data/Work/SimplyVital Health/Ethereum/Projects/DRS/contracts/HealthDRS.sol",
  "compiler": {
    "name": "solc",
    "version": "0.4.18+commit.9cf6e910.Emscripten.clang"
  },
  "schemaVersion": "1.0.1",
  "updatedAt": "2018-01-24T17:41:25.222Z"
}